{
  "transactions": [
    {
      "hash": "0xeb2fc94910602513ff33646308a49099161814292caf8e632f79918cab51bdbf",
      "transactionType": "CREATE",
      "contractName": "CheeseVault",
      "contractAddress": "0x1427e644eaf04b4e2d268e786da09d85fe43b1c6",
      "function": null,
      "arguments": [
        "0x41E94Eb019C0762f9Bfcf9Fb1E58725BfB0e7582",
        "500000",
        "1000000"
      ],
      "transaction": {
        "from": "0x5c24d44ea5c8324f71b5147d9aac500a90526750",
        "gas": "0x1d44aa",
        "value": "0x0",
        "input": "0x60a060405234801562000010575f80fd5b5060405162001a3238038062001a328339810160408190526200003391620001c9565b60017f9b779b17422d0df92223018b32b4d1fa46e071723d6817e2486d003becc55f00556001600160a01b038316620000b35760405162461bcd60e51b815260206004820152601460248201527f496e76616c69642055534443206164647265737300000000000000000000000060448201526064015b60405180910390fd5b624c4b40821115620001085760405162461bcd60e51b815260206004820152601360248201527f4665652065786365656473206d6178696d756d000000000000000000000000006044820152606401620000aa565b6001600160a01b038316608052600882905560098190556200012b5f3362000135565b505050506200020a565b5f8281526001602090815260408083206001600160a01b038516845290915281205460ff16620001c0575f8381526001602081815260408084206001600160a01b0387168086529252808420805460ff19169093179092559051339286917f2f8788117e7eff1d82e926ec794901d17c78024a50270940304540a733656f0d9190a4506001620001c3565b505f5b92915050565b5f805f60608486031215620001dc575f80fd5b83516001600160a01b0381168114620001f3575f80fd5b602085015160409095015190969495509392505050565b6080516117ec620002465f395f81816102e70152818161082d015281816109b201528181610e8d01528181611068015261126901526117ec5ff3fe608060405234801561000f575f80fd5b50600436106101fd575f3560e01c806369fe0e2d11610114578063ab3640c8116100a9578063db2e21bc11610079578063db2e21bc14610426578063e4f66d741461042e578063f0a3a97c14610451578063f5b541a614610478578063faef757e1461049f575f80fd5b8063ab3640c8146103e3578063b6b55f25146103f6578063bc063e1a14610409578063d547741f14610413575f80fd5b80638456cb59116100e45780638456cb59146103ae5780638fcc9cfb146103b657806391d14854146103c9578063a217fddf146103dc575f80fd5b806369fe0e2d1461035657806370a082311461036957806374a6d16e1461039157806375b238fc1461039a575f80fd5b806337e32d1d1161019557806341b3d1851161016557806341b3d185146103295780635606299b146103325780635c975abb1461033a57806360c6d8ae1461034457806369e154041461034d575f80fd5b806337e32d1d146102d057806338b2d295146102d95780633e413bee146102e25780633f4ba83a14610321575f80fd5b8063289a74c9116101d0578063289a74c91461028e5780632e1a7d4d146102975780632f2ff15d146102aa57806336568abe146102bd575f80fd5b8063017ddd941461020157806301ffc9a714610216578063248a9ca31461023e57806327e235e31461026f575b5f80fd5b61021461020f3660046115e1565b6104b2565b005b610229610224366004611624565b6106ec565b60405190151581526020015b60405180910390f35b61026161024c366004611652565b5f908152600160208190526040909120015490565b604051908152602001610235565b61026161027d366004611669565b60026020525f908152604090205481565b61026160065481565b6102146102a5366004611652565b610722565b6102146102b8366004611682565b61091c565b6102146102cb366004611682565b610947565b61026160055481565b61026160045481565b6103097f000000000000000000000000000000000000000000000000000000000000000081565b6040516001600160a01b039091168152602001610235565b61021461097f565b61026160095481565b610229610991565b5f5460ff16610229565b61026160075481565b61026160085481565b610214610364366004611652565b610a45565b610261610377366004611669565b6001600160a01b03165f9081526002602052604090205490565b61026160035481565b6102615f8051602061179783398151915281565b610214610aec565b6102146103c4366004611652565b610afe565b6102296103d7366004611682565b610b53565b6102615f81565b6102146103f13660046116ac565b610b7d565b610214610404366004611652565b610dba565b610261624c4b4081565b610214610421366004611682565b610f9a565b610214610fbf565b610436611144565b60408051938452602084019290925290820152606001610235565b6102617f3496e2e73c4d42b75d702e60d9e48102720b8691234415963a5a857b86425d0781565b6102617f97667070c54ef182b0f5858b034beac1b6f3089aa2d3188bb1e8929f4fa9b92981565b6102146104ad366004611669565b61115c565b5f805160206117978339815191526104c981611379565b6104d1611383565b6104d961139e565b5f84116105395760405162461bcd60e51b8152602060048201526024808201527f526566756e6420616d6f756e74206d75737420626520677265617465722074686044820152630616e20360e41b60648201526084015b60405180910390fd5b600454849081111561059f5760405162461bcd60e51b815260206004820152602960248201527f496e73756666696369656e742070726f636573736564207061796d656e7473206044820152681d1bc81c99599d5b9960ba1b6064820152608401610530565b8460045f8282546105b091906116f0565b9091555050831561063757600854600654101561060f5760405162461bcd60e51b815260206004820152601b60248201527f496e73756666696369656e74206665657320746f20726566756e6400000000006044820152606401610530565b60085460065f82825461062291906116f0565b90915550506008546106349082611703565b90505b6001600160a01b0386165f908152600260205260408120805483929061065e908490611703565b925050819055508060035f8282546106769190611703565b90915550506001600160a01b0386165f81815260026020908152604091829020548251858152918201528592917fc98b67d2e4acddc3ae6731eaf49b69d42e69adf8b98df5ba0e50675a1298458b910160405180910390a3506106e560015f8051602061177783398151915255565b5050505050565b5f6001600160e01b03198216637965db0b60e01b148061071c57506301ffc9a760e01b6001600160e01b03198316145b92915050565b61072a611383565b61073261139e565b5f81116107815760405162461bcd60e51b815260206004820152601d60248201527f416d6f756e74206d7573742062652067726561746572207468616e20300000006044820152606401610530565b335f908152600260205260409020548111156107d65760405162461bcd60e51b8152602060048201526014602482015273496e73756666696369656e742062616c616e636560601b6044820152606401610530565b335f90815260026020526040812080548392906107f49084906116f0565b925050819055508060035f82825461080c91906116f0565b909155505060405163a9059cbb60e01b8152336004820152602481018290527f00000000000000000000000000000000000000000000000000000000000000006001600160a01b03169063a9059cbb906044016020604051808303815f875af115801561087b573d5f803e3d5ffd5b505050506040513d601f19601f8201168201806040525081019061089f9190611716565b6108bb5760405162461bcd60e51b815260040161053090611731565b335f81815260026020908152604091829020548251858152918201527fdf273cb619d95419a9cd0ec88123a0538c85064229baa6363788f743fff90deb91015b60405180910390a261091960015f8051602061177783398151915255565b50565b5f828152600160208190526040909120015461093781611379565b61094183836113c1565b50505050565b6001600160a01b03811633146109705760405163334bd91960e11b815260040160405180910390fd5b61097a8282611437565b505050565b5f61098981611379565b6109196114a2565b6040516370a0823160e01b81523060048201525f9081906001600160a01b037f000000000000000000000000000000000000000000000000000000000000000016906370a0823190602401602060405180830381865afa1580156109f7573d5f803e3d5ffd5b505050506040513d601f19601f82011682018060405250810190610a1b919061175f565b90505f600654600454600354610a319190611703565b610a3b9190611703565b9091101592915050565b5f80516020611797833981519152610a5c81611379565b624c4b40821115610aa55760405162461bcd60e51b81526020600482015260136024820152724665652065786365656473206d6178696d756d60681b6044820152606401610530565b600880549083905560408051828152602081018590527f528d9479e9f9889a87a3c30c7f7ba537e5e59c4c85a37733b16e57c62df6130291015b60405180910390a1505050565b5f610af681611379565b6109196114f3565b5f80516020611797833981519152610b1581611379565b600980549083905560408051828152602081018590527fb566d3df2587c9e70b06b6419bdeeeeec8ca8cd60e4c48c6baad0d94c46809c79101610adf565b5f9182526001602090815260408084206001600160a01b0393909316845291905290205460ff1690565b7f97667070c54ef182b0f5858b034beac1b6f3089aa2d3188bb1e8929f4fa9b929610ba781611379565b610baf611383565b610bb761139e565b5f8311610c145760405162461bcd60e51b815260206004820152602560248201527f5061796d656e7420616d6f756e74206d75737420626520677265617465722074604482015264068616e20360dc1b6064820152608401610530565b5f60085484610c239190611703565b6001600160a01b0386165f90815260026020526040902054909150811115610c9c5760405162461bcd60e51b815260206004820152602660248201527f496e73756666696369656e742062616c616e636520666f72207061796d656e74604482015265202b2066656560d01b6064820152608401610530565b6001600160a01b0385165f9081526002602052604081208054839290610cc39084906116f0565b925050819055508060035f828254610cdb91906116f0565b925050819055508360045f828254610cf39190611703565b925050819055508360055f828254610d0b9190611703565b9091555050600854600680545f90610d24908490611703565b9091555050600854600780545f90610d3d908490611703565b90915550506008546001600160a01b0386165f81815260026020908152604091829020548251898152918201949094529081019290925284917f0fad5641042540364616c9c3eb21054be12fde13b6617c6b379ef9734035d2ea9060600160405180910390a35061094160015f8051602061177783398151915255565b610dc2611383565b610dca61139e565b600954811015610e1c5760405162461bcd60e51b815260206004820152601c60248201527f416d6f756e742062656c6f77206d696e696d756d206465706f736974000000006044820152606401610530565b5f8111610e6b5760405162461bcd60e51b815260206004820152601d60248201527f416d6f756e74206d7573742062652067726561746572207468616e20300000006044820152606401610530565b6040516323b872dd60e01b8152336004820152306024820152604481018290527f00000000000000000000000000000000000000000000000000000000000000006001600160a01b0316906323b872dd906064016020604051808303815f875af1158015610edb573d5f803e3d5ffd5b505050506040513d601f19601f82011682018060405250810190610eff9190611716565b610f1b5760405162461bcd60e51b815260040161053090611731565b335f9081526002602052604081208054839290610f39908490611703565b925050819055508060035f828254610f519190611703565b9091555050335f81815260026020908152604091829020548251858152918201527f90890809c654f11d6e72a28fa60149770a0d11ec6c92319d6ceb2bb0a4ea1a1591016108fb565b5f8281526001602081905260409091200154610fb581611379565b6109418383611437565b610fc7611383565b610fcf61152f565b335f90815260026020526040902054806110245760405162461bcd60e51b81526020600482015260166024820152754e6f2062616c616e636520746f20776974686472617760501b6044820152606401610530565b335f908152600260205260408120819055600380548392906110479084906116f0565b909155505060405163a9059cbb60e01b8152336004820152602481018290527f00000000000000000000000000000000000000000000000000000000000000006001600160a01b03169063a9059cbb906044016020604051808303815f875af11580156110b6573d5f803e3d5ffd5b505050506040513d601f19601f820116820180604052508101906110da9190611716565b6110f65760405162461bcd60e51b815260040161053090611731565b60405181815233907f23d6711a1d031134a36921253c75aa59e967d38e369ac625992824315e204f209060200160405180910390a25061114260015f8051602061177783398151915255565b565b6004546006545f6111558284611703565b9050909192565b7f3496e2e73c4d42b75d702e60d9e48102720b8691234415963a5a857b86425d0761118681611379565b61118e611383565b6001600160a01b0382166111e45760405162461bcd60e51b815260206004820152601960248201527f496e76616c696420726563697069656e742061646472657373000000000000006044820152606401610530565b6004546006545f6111f58284611703565b90505f81116112465760405162461bcd60e51b815260206004820152601e60248201527f4e6f2066756e647320617661696c61626c6520746f20776974686472617700006044820152606401610530565b5f600481815560069190915560405163a9059cbb60e01b81526001600160a01b037f0000000000000000000000000000000000000000000000000000000000000000169163a9059cbb916112b29189918691016001600160a01b03929092168252602082015260400190565b6020604051808303815f875af11580156112ce573d5f803e3d5ffd5b505050506040513d601f19601f820116820180604052508101906112f29190611716565b61130e5760405162461bcd60e51b815260040161053090611731565b60408051848152602081018490529081018290526001600160a01b0386169033907f62aee8adf09ac6ab6bc274cdf5730c0843d263870407fb3e6f19e9d88af62cbe9060600160405180910390a350505061137560015f8051602061177783398151915255565b5050565b6109198133611551565b61138b61158a565b60025f8051602061177783398151915255565b5f5460ff16156111425760405163d93c066560e01b815260040160405180910390fd5b5f6113cc8383610b53565b611430575f8381526001602081815260408084206001600160a01b0387168086529252808420805460ff19169093179092559051339286917f2f8788117e7eff1d82e926ec794901d17c78024a50270940304540a733656f0d9190a450600161071c565b505f61071c565b5f6114428383610b53565b15611430575f8381526001602090815260408083206001600160a01b0386168085529252808320805460ff1916905551339286917ff6391f5c32d9c69d2a47ea670b442974b53935d1edc7fd64eb21e047a839171b9190a450600161071c565b6114aa61152f565b5f805460ff191690557f5db9ee0a495bf2e6ff9c91a7834c1ba4fdd244a5e8aa4e537bd38aeae4b073aa335b6040516001600160a01b03909116815260200160405180910390a1565b6114fb61139e565b5f805460ff191660011790557f62e78cea01bee320cd4e420270b5ea74000d11b0c9f74754ebdbfc544b05a2586114d63390565b5f5460ff1661114257604051638dfc202b60e01b815260040160405180910390fd5b61155b8282610b53565b6113755760405163e2517d3f60e01b81526001600160a01b038216600482015260248101839052604401610530565b5f805160206117778339815191525460020361114257604051633ee5aeb560e01b815260040160405180910390fd5b80356001600160a01b03811681146115cf575f80fd5b919050565b8015158114610919575f80fd5b5f805f80608085870312156115f4575f80fd5b6115fd856115b9565b9350602085013592506040850135611614816115d4565b9396929550929360600135925050565b5f60208284031215611634575f80fd5b81356001600160e01b03198116811461164b575f80fd5b9392505050565b5f60208284031215611662575f80fd5b5035919050565b5f60208284031215611679575f80fd5b61164b826115b9565b5f8060408385031215611693575f80fd5b823591506116a3602084016115b9565b90509250929050565b5f805f606084860312156116be575f80fd5b6116c7846115b9565b95602085013595506040909401359392505050565b634e487b7160e01b5f52601160045260245ffd5b8181038181111561071c5761071c6116dc565b8082018082111561071c5761071c6116dc565b5f60208284031215611726575f80fd5b815161164b816115d4565b6020808252601490820152731554d110c81d1c985b9cd9995c8819985a5b195960621b604082015260600190565b5f6020828403121561176f575f80fd5b505191905056fe9b779b17422d0df92223018b32b4d1fa46e071723d6817e2486d003becc55f00a49807205ce4d355092ef5a8a18f56e8913cf4a201fbe287825b095693c21775a26469706673582212203e1c54394f69f374314316db9a2a1ff6d292eba626bfe0f208c0c53a133661c164736f6c6343000814003300000000000000000000000041e94eb019c0762f9bfcf9fb1e58725bfb0e7582000000000000000000000000000000000000000000000000000000000007a12000000000000000000000000000000000000000000000000000000000000f4240",
        "nonce": "0x2",
        "chainId": "0x13882"
      },
      "additionalContracts": [],
      "isFixedGasLimit": false
    },
    {
      "hash": "0x90dc4591ab5f797ca70ccc8df70c486a9e52771ad498b832bcc4455c75c71c18",
      "transactionType": "CALL",
      "contractName": "CheeseVault",
      "contractAddress": "0x1427e644eaf04b4e2d268e786da09d85fe43b1c6",
      "function": "grantRole(bytes32,address)",
      "arguments": [
        "0xa49807205ce4d355092ef5a8a18f56e8913cf4a201fbe287825b095693c21775",
        "0x5c24d44ea5c8324F71b5147D9AAc500a90526750"
      ],
      "transaction": {
        "from": "0x5c24d44ea5c8324f71b5147d9aac500a90526750",
        "to": "0x1427e644eaf04b4e2d268e786da09d85fe43b1c6",
        "gas": "0x12629",
        "value": "0x0",
        "input": "0x2f2ff15da49807205ce4d355092ef5a8a18f56e8913cf4a201fbe287825b095693c217750000000000000000000000005c24d44ea5c8324f71b5147d9aac500a90526750",
        "nonce": "0x3",
        "chainId": "0x13882"
      },
      "additionalContracts": [],
      "isFixedGasLimit": false
    },
    {
      "hash": "0x9c41b8e47831dde6d614fc175120bc4794102bd5e372d1ac8079822af714650c",
      "transactionType": "CALL",
      "contractName": "CheeseVault",
      "contractAddress": "0x1427e644eaf04b4e2d268e786da09d85fe43b1c6",
      "function": "grantRole(bytes32,address)",
      "arguments": [
        "0x97667070c54ef182b0f5858b034beac1b6f3089aa2d3188bb1e8929f4fa9b929",
        "0x5c24d44ea5c8324F71b5147D9AAc500a90526750"
      ],
      "transaction": {
        "from": "0x5c24d44ea5c8324f71b5147d9aac500a90526750",
        "to": "0x1427e644eaf04b4e2d268e786da09d85fe43b1c6",
        "gas": "0x12629",
        "value": "0x0",
        "input": "0x2f2ff15d97667070c54ef182b0f5858b034beac1b6f3089aa2d3188bb1e8929f4fa9b9290000000000000000000000005c24d44ea5c8324f71b5147d9aac500a90526750",
        "nonce": "0x4",
        "chainId": "0x13882"
      },
      "additionalContracts": [],
      "isFixedGasLimit": false
    },
    {
      "hash": "0xaa5ac11a9ad36fdd63f00278c30e960b716932b2ee730aced12440377fb02707",
      "transactionType": "CALL",
      "contractName": "CheeseVault",
      "contractAddress": "0x1427e644eaf04b4e2d268e786da09d85fe43b1c6",
      "function": "grantRole(bytes32,address)",
      "arguments": [
        "0x3496e2e73c4d42b75d702e60d9e48102720b8691234415963a5a857b86425d07",
        "0x5c24d44ea5c8324F71b5147D9AAc500a90526750"
      ],
      "transaction": {
        "from": "0x5c24d44ea5c8324f71b5147d9aac500a90526750",
        "to": "0x1427e644eaf04b4e2d268e786da09d85fe43b1c6",
        "gas": "0x12629",
        "value": "0x0",
        "input": "0x2f2ff15d3496e2e73c4d42b75d702e60d9e48102720b8691234415963a5a857b86425d070000000000000000000000005c24d44ea5c8324f71b5147d9aac500a90526750",
        "nonce": "0x5",
        "chainId": "0x13882"
      },
      "additionalContracts": [],
      "isFixedGasLimit": false
    }
  ],
  "receipts": [
    {
      "status": "0x1",
      "cumulativeGasUsed": "0x168397",
      "logs": [
        {
          "address": "0x1427e644eaf04b4e2d268e786da09d85fe43b1c6",
          "topics": [
            "0x2f8788117e7eff1d82e926ec794901d17c78024a50270940304540a733656f0d",
            "0x0000000000000000000000000000000000000000000000000000000000000000",
            "0x0000000000000000000000005c24d44ea5c8324f71b5147d9aac500a90526750",
            "0x0000000000000000000000005c24d44ea5c8324f71b5147d9aac500a90526750"
          ],
          "data": "0x",
          "blockHash": "0x9158a9237742c2d59cb0b4881dc701bb0ca6c80623d1592eb0f982731c145e91",
          "blockNumber": "0x1dc000e",
          "blockTimestamp": "0x694e650c",
          "transactionHash": "0xeb2fc94910602513ff33646308a49099161814292caf8e632f79918cab51bdbf",
          "transactionIndex": "0x0",
          "logIndex": "0x0",
          "removed": false
        },
        {
          "address": "0x0000000000000000000000000000000000001010",
          "topics": [
            "0x4dfe1bbbcf077ddc3e01291eea2d5c70c2b422b415d95645b9adcfd678cb1d63",
            "0x0000000000000000000000000000000000000000000000000000000000001010",
            "0x0000000000000000000000005c24d44ea5c8324f71b5147d9aac500a90526750",
            "0x0000000000000000000000007ee41d8a25641000661b1ef5e6ae8a00400466b0"
          ],
          "data": "0x00000000000000000000000000000000000000000000000000b777e9626632000000000000000000000000000000000000000000000000000668612845f4a0df0000000000000000000000000000000000000000000014cf966fd58c90df399c00000000000000000000000000000000000000000000000005b0e93ee38e6edf0000000000000000000000000000000000000000000014cf97274d75f3456b9c",
          "blockHash": "0x9158a9237742c2d59cb0b4881dc701bb0ca6c80623d1592eb0f982731c145e91",
          "blockNumber": "0x1dc000e",
          "blockTimestamp": "0x694e650c",
          "transactionHash": "0xeb2fc94910602513ff33646308a49099161814292caf8e632f79918cab51bdbf",
          "transactionIndex": "0x0",
          "logIndex": "0x1",
          "removed": false
        }
      ],
      "logsBloom": "0x00000004000000020000000000000000000000000000000000000000000000000000000000000000000020000000000000008000000000000000000000000000000000000002000000000000000000800000000000000000000100000000000000000000020000000000000000000800100020000000000080000000000000000000000000000000020000000400000000000000000000000000004000000000200000000000000000000000000000000000000000000000001000000000004000000000000000000001000000000000000000400000000100100000000020000000000000000000000000000000000000000000000000000000000000100000",
      "type": "0x2",
      "transactionHash": "0xeb2fc94910602513ff33646308a49099161814292caf8e632f79918cab51bdbf",
      "transactionIndex": "0x0",
      "blockHash": "0x9158a9237742c2d59cb0b4881dc701bb0ca6c80623d1592eb0f982731c145e91",
      "blockNumber": "0x1dc000e",
      "gasUsed": "0x168397",
      "effectiveGasPrice": "0x826299e3f",
      "from": "0x5c24d44ea5c8324f71b5147d9aac500a90526750",
      "to": null,
      "contractAddress": "0x1427e644eaf04b4e2d268e786da09d85fe43b1c6"
    },
    {
      "status": "0x1",
      "cumulativeGasUsed": "0x174cba",
      "logs": [
        {
          "address": "0x1427e644eaf04b4e2d268e786da09d85fe43b1c6",
          "topics": [
            "0x2f8788117e7eff1d82e926ec794901d17c78024a50270940304540a733656f0d",
            "0xa49807205ce4d355092ef5a8a18f56e8913cf4a201fbe287825b095693c21775",
            "0x0000000000000000000000005c24d44ea5c8324f71b5147d9aac500a90526750",
            "0x0000000000000000000000005c24d44ea5c8324f71b5147d9aac500a90526750"
          ],
          "data": "0x",
          "blockHash": "0x9158a9237742c2d59cb0b4881dc701bb0ca6c80623d1592eb0f982731c145e91",
          "blockNumber": "0x1dc000e",
          "blockTimestamp": "0x694e650c",
          "transactionHash": "0x90dc4591ab5f797ca70ccc8df70c486a9e52771ad498b832bcc4455c75c71c18",
          "transactionIndex": "0x1",
          "logIndex": "0x2",
          "removed": false
        },
        {
          "address": "0x0000000000000000000000000000000000001010",
          "topics": [
            "0x4dfe1bbbcf077ddc3e01291eea2d5c70c2b422b415d95645b9adcfd678cb1d63",
            "0x0000000000000000000000000000000000000000000000000000000000001010",
            "0x0000000000000000000000005c24d44ea5c8324f71b5147d9aac500a90526750",
            "0x0000000000000000000000007ee41d8a25641000661b1ef5e6ae8a00400466b0"
          ],
          "data": "0x00000000000000000000000000000000000000000000000000066713e4be9a0000000000000000000000000000000000000000000000000005b0e93ede040cb60000000000000000000000000000000000000000000014cf97274d75f3456b9c00000000000000000000000000000000000000000000000005aa822af94572b60000000000000000000000000000000000000000000014cf972db489d804059c",
          "blockHash": "0x9158a9237742c2d59cb0b4881dc701bb0ca6c80623d1592eb0f982731c145e91",
          "blockNumber": "0x1dc000e",
          "blockTimestamp": "0x694e650c",
          "transactionHash": "0x90dc4591ab5f797ca70ccc8df70c486a9e52771ad498b832bcc4455c75c71c18",
          "transactionIndex": "0x1",
          "logIndex": "0x3",
          "removed": false
        }
      ],
      "logsBloom": "0x00000004000000020000000000000000000000000000000000000000000000000000000000000000000020000000000000008000000000000000000000000000000000000002000000000000000000800000000020000000000100000000000000000000000000000000000000000000100020000000000880000000000000000000000000000000020000000400004000000000000000000000004000000000200000000000000000000000000000000000000000000000001000000000004000000000000000000001000000000000000000400000000100100000000000000000000000000000000000000000000000000000000000000000000000100000",
      "type": "0x2",
      "transactionHash": "0x90dc4591ab5f797ca70ccc8df70c486a9e52771ad498b832bcc4455c75c71c18",
      "transactionIndex": "0x1",
      "blockHash": "0x9158a9237742c2d59cb0b4881dc701bb0ca6c80623d1592eb0f982731c145e91",
      "blockNumber": "0x1dc000e",
      "gasUsed": "0xc923",
      "effectiveGasPrice": "0x826299e3f",
      "from": "0x5c24d44ea5c8324f71b5147d9aac500a90526750",
      "to": "0x1427e644eaf04b4e2d268e786da09d85fe43b1c6",
      "contractAddress": null
    },
    {
      "status": "0x1",
      "cumulativeGasUsed": "0x1815dd",
      "logs": [
        {
          "address": "0x1427e644eaf04b4e2d268e786da09d85fe43b1c6",
          "topics": [
            "0x2f8788117e7eff1d82e926ec794901d17c78024a50270940304540a733656f0d",
            "0x97667070c54ef182b0f5858b034beac1b6f3089aa2d3188bb1e8929f4fa9b929",
            "0x0000000000000000000000005c24d44ea5c8324f71b5147d9aac500a90526750",
            "0x0000000000000000000000005c24d44ea5c8324f71b5147d9aac500a90526750"
          ],
          "data": "0x",
          "blockHash": "0x9158a9237742c2d59cb0b4881dc701bb0ca6c80623d1592eb0f982731c145e91",
          "blockNumber": "0x1dc000e",
          "blockTimestamp": "0x694e650c",
          "transactionHash": "0x9c41b8e47831dde6d614fc175120bc4794102bd5e372d1ac8079822af714650c",
          "transactionIndex": "0x2",
          "logIndex": "0x4",
          "removed": false
        },
        {
          "address": "0x0000000000000000000000000000000000001010",
          "topics": [
            "0x4dfe1bbbcf077ddc3e01291eea2d5c70c2b422b415d95645b9adcfd678cb1d63",
            "0x0000000000000000000000000000000000000000000000000000000000001010",
            "0x0000000000000000000000005c24d44ea5c8324f71b5147d9aac500a90526750",
            "0x0000000000000000000000007ee41d8a25641000661b1ef5e6ae8a00400466b0"
          ],
          "data": "0x00000000000000000000000000000000000000000000000000066713e4be9a0000000000000000000000000000000000000000000000000005aa822af913f3190000000000000000000000000000000000000000000014cf972db489d804059c00000000000000000000000000000000000000000000000005a41b17145559190000000000000000000000000000000000000000000014cf97341b9dbcc29f9c",
          "blockHash": "0x9158a9237742c2d59cb0b4881dc701bb0ca6c80623d1592eb0f982731c145e91",
          "blockNumber": "0x1dc000e",
          "blockTimestamp": "0x694e650c",
          "transactionHash": "0x9c41b8e47831dde6d614fc175120bc4794102bd5e372d1ac8079822af714650c",
          "transactionIndex": "0x2",
          "logIndex": "0x5",
          "removed": false
        }
      ],
      "logsBloom": "0x00000004000000020000000000000000000000000000000000000000000000000200000000000000000020000000000000008000000000000000000000000000000000000002000000000000000000800002000000000000000100000000000000000000000000000000000000000000100020000000000080000000000000000000000000000000020000000400000000000000000000000000004000000000200000000000000000000000000000000000000000008000001000000000004000000000000000000001000000000000000000400000000100100000000000000000000000000000000000000000000000000000000000000000000000100000",
      "type": "0x2",
      "transactionHash": "0x9c41b8e47831dde6d614fc175120bc4794102bd5e372d1ac8079822af714650c",
      "transactionIndex": "0x2",
      "blockHash": "0x9158a9237742c2d59cb0b4881dc701bb0ca6c80623d1592eb0f982731c145e91",
      "blockNumber": "0x1dc000e",
      "gasUsed": "0xc923",
      "effectiveGasPrice": "0x826299e3f",
      "from": "0x5c24d44ea5c8324f71b5147d9aac500a90526750",
      "to": "0x1427e644eaf04b4e2d268e786da09d85fe43b1c6",
      "contractAddress": null
    },
    {
      "status": "0x1",
      "cumulativeGasUsed": "0x18df00",
      "logs": [
        {
          "address": "0x1427e644eaf04b4e2d268e786da09d85fe43b1c6",
          "topics": [
            "0x2f8788117e7eff1d82e926ec794901d17c78024a50270940304540a733656f0d",
            "0x3496e2e73c4d42b75d702e60d9e48102720b8691234415963a5a857b86425d07",
            "0x0000000000000000000000005c24d44ea5c8324f71b5147d9aac500a90526750",
            "0x0000000000000000000000005c24d44ea5c8324f71b5147d9aac500a90526750"
          ],
          "data": "0x",
          "blockHash": "0x9158a9237742c2d59cb0b4881dc701bb0ca6c80623d1592eb0f982731c145e91",
          "blockNumber": "0x1dc000e",
          "blockTimestamp": "0x694e650c",
          "transactionHash": "0xaa5ac11a9ad36fdd63f00278c30e960b716932b2ee730aced12440377fb02707",
          "transactionIndex": "0x3",
          "logIndex": "0x6",
          "removed": false
        },
        {
          "address": "0x0000000000000000000000000000000000001010",
          "topics": [
            "0x4dfe1bbbcf077ddc3e01291eea2d5c70c2b422b415d95645b9adcfd678cb1d63",
            "0x0000000000000000000000000000000000000000000000000000000000001010",
            "0x0000000000000000000000005c24d44ea5c8324f71b5147d9aac500a90526750",
            "0x0000000000000000000000007ee41d8a25641000661b1ef5e6ae8a00400466b0"
          ],
          "data": "0x00000000000000000000000000000000000000000000000000066713e4be9a0000000000000000000000000000000000000000000000000005a41b171423d97c0000000000000000000000000000000000000000000014cf97341b9dbcc29f9c000000000000000000000000000000000000000000000000059db4032f653f7c0000000000000000000000000000000000000000000014cf973a82b1a181399c",
          "blockHash": "0x9158a9237742c2d59cb0b4881dc701bb0ca6c80623d1592eb0f982731c145e91",
          "blockNumber": "0x1dc000e",
          "blockTimestamp": "0x694e650c",
          "transactionHash": "0xaa5ac11a9ad36fdd63f00278c30e960b716932b2ee730aced12440377fb02707",
          "transactionIndex": "0x3",
          "logIndex": "0x7",
          "removed": false
        }
      ],
      "logsBloom": "0x00000004000000020000000000000000000000000000000000000000000000000000080000000000000020000000000000008000000000000000000000000000000000000002000000000000000000800000000000000000000100000000000000000000000000000000000000000000100020000000000080000000000000000000000000000000020000000400000000000000000000000020004000000000200000000000000000000000000000000000000000000000001000000000004000000000000000000001000000000000000000400000000100100000000000000000000000000000000000000000000000800000000000000000000000100000",
      "type": "0x2",
      "transactionHash": "0xaa5ac11a9ad36fdd63f00278c30e960b716932b2ee730aced12440377fb02707",
      "transactionIndex": "0x3",
      "blockHash": "0x9158a9237742c2d59cb0b4881dc701bb0ca6c80623d1592eb0f982731c145e91",
      "blockNumber": "0x1dc000e",
      "gasUsed": "0xc923",
      "effectiveGasPrice": "0x826299e3f",
      "from": "0x5c24d44ea5c8324f71b5147d9aac500a90526750",
      "to": "0x1427e644eaf04b4e2d268e786da09d85fe43b1c6",
      "contractAddress": null
    }
  ],
  "libraries": [],
  "pending": [],
  "returns": {},
  "timestamp": 1766745385246,
  "chain": 80002,
  "commit": "4b3606e"
}